{
    "contractName": "ServerManagement",
    "abi": [
        {
            "inputs": [
                {
                    "internalType": "uint256",
                    "name": "_thresholdPerformance",
                    "type": "uint256"
                },
                {
                    "internalType": "uint256",
                    "name": "_sleepTime",
                    "type": "uint256"
                }
            ],
            "stateMutability": "nonpayable",
            "type": "constructor"
        },
        {
            "anonymous": false,
            "inputs": [
                {
                    "indexed": true,
                    "internalType": "address",
                    "name": "serverAddress",
                    "type": "address"
                },
                {
                    "indexed": false,
                    "internalType": "uint256",
                    "name": "utilization",
                    "type": "uint256"
                }
            ],
            "name": "HibernateEvent",
            "type": "event"
        },
        {
            "anonymous": false,
            "inputs": [
                {
                    "indexed": true,
                    "internalType": "address",
                    "name": "serverAddress",
                    "type": "address"
                }
            ],
            "name": "WakeUpEvent",
            "type": "event"
        },
        {
            "inputs": [
                {
                    "internalType": "uint256",
                    "name": "_utilization",
                    "type": "uint256"
                }
            ],
            "name": "checkServerUtilization",
            "outputs": [],
            "stateMutability": "nonpayable",
            "type": "function"
        },
        {
            "inputs": [],
            "name": "isServerActive",
            "outputs": [
                {
                    "internalType": "bool",
                    "name": "",
                    "type": "bool"
                }
            ],
            "stateMutability": "view",
            "type": "function"
        },
        {
            "inputs": [],
            "name": "owner",
            "outputs": [
                {
                    "internalType": "address",
                    "name": "",
                    "type": "address"
                }
            ],
            "stateMutability": "view",
            "type": "function"
        },
        {
            "inputs": [],
            "name": "sleepTime",
            "outputs": [
                {
                    "internalType": "uint256",
                    "name": "",
                    "type": "uint256"
                }
            ],
            "stateMutability": "view",
            "type": "function"
        },
        {
            "inputs": [],
            "name": "thresholdPerformance",
            "outputs": [
                {
                    "internalType": "uint256",
                    "name": "",
                    "type": "uint256"
                }
            ],
            "stateMutability": "view",
            "type": "function"
        },
        {
            "inputs": [
                {
                    "internalType": "uint256",
                    "name": "_newsleepTime",
                    "type": "uint256"
                }
            ],
            "name": "updatesleepTime",
            "outputs": [],
            "stateMutability": "nonpayable",
            "type": "function"
        },
        {
            "inputs": [
                {
                    "internalType": "uint256",
                    "name": "_newThreshold",
                    "type": "uint256"
                }
            ],
            "name": "updatethresholdPerformance",
            "outputs": [],
            "stateMutability": "nonpayable",
            "type": "function"
        },
        {
            "inputs": [],
            "name": "wakeUpServer",
            "outputs": [],
            "stateMutability": "nonpayable",
            "type": "function"
        }
    ],
    "bytecode": "608060405234801561000f575f80fd5b5060405161043438038061043483398101604081905261002e91610059565b5f80546001600160a01b0319163317905560019182556002556003805460ff1916909117905561007b565b5f806040838503121561006a575f80fd5b505080516020909101519092909150565b6103ac806100885f395ff3fe608060405234801561000f575f80fd5b5060043610610085575f3560e01c8063957156551161005857806395715655146100f7578063b367b5f01461010a578063ccb197d014610113578063eb5c349b1461011b575f80fd5b80631812e36e146100895780633636f6431461009e5780638655a2f9146100b15780638da5cb5b146100cd575b5f80fd5b61009c61009736600461031a565b610138565b005b61009c6100ac36600461031a565b610209565b6100ba60015481565b6040519081526020015b60405180910390f35b5f546100df906001600160a01b031681565b6040516001600160a01b0390911681526020016100c4565b61009c61010536600461031a565b610237565b6100ba60025481565b61009c610265565b6003546101289060ff1681565b60405190151581526020016100c4565b5f546001600160a01b0316331461016a5760405162461bcd60e51b815260040161016190610331565b60405180910390fd5b60035460ff166101bc5760405162461bcd60e51b815260206004820152601e60248201527f536572766572206973206e6f742063757272656e746c792061637469766500006044820152606401610161565b600154811015610206576003805460ff1916905560405181815230907f332c14c133047cde56895c17155f30b2723c4343138716dc5e1f49488f7a4fa69060200160405180910390a25b50565b5f546001600160a01b031633146102325760405162461bcd60e51b815260040161016190610331565b600255565b5f546001600160a01b031633146102605760405162461bcd60e51b815260040161016190610331565b600155565b5f546001600160a01b0316331461028e5760405162461bcd60e51b815260040161016190610331565b60035460ff16156102e15760405162461bcd60e51b815260206004820152601860248201527f53657276657220697320616c72656164792061637469766500000000000000006044820152606401610161565b6003805460ff1916600117905560405130907f080baa72fe7e0da5e15df6865d4016d354ff40fc12e1c766eb3a6c5f4892d348905f90a2565b5f6020828403121561032a575f80fd5b5035919050565b60208082526025908201527f4f6e6c7920746865206f776e65722063616e2063616c6c20746869732066756e60408201526431ba34b7b760d91b60608201526080019056fea26469706673582212202bd08cb6d0ca0b3c6d41c38eceeada066602dbedbf1c71a4d991eb843ced82b164736f6c63430008170033",
    "sourcePath": "/Users/keshavgogia/Documents/GitHub/Square_root/smart contract/contract.sol",
    "compiler": {
        "name": "solc",
        "version": "0.8.23+commit.f704f362"
    },
    "functionHashes": {
        "checkServerUtilization(uint256)": "1812e36e",
        "isServerActive()": "eb5c349b",
        "owner()": "8da5cb5b",
        "sleepTime()": "b367b5f0",
        "thresholdPerformance()": "8655a2f9",
        "updatesleepTime(uint256)": "3636f643",
        "updatethresholdPerformance(uint256)": "95715655",
        "wakeUpServer()": "ccb197d0"
    },
    "gasEstimates": {
        "creation": {
            "codeDepositCost": "188000",
            "executionCost": "infinite",
            "totalCost": "infinite"
        },
        "external": {
            "checkServerUtilization(uint256)": "32265",
            "isServerActive()": "2375",
            "owner()": "2402",
            "sleepTime()": "2305",
            "thresholdPerformance()": "2328",
            "updatesleepTime(uint256)": "24484",
            "updatethresholdPerformance(uint256)": "24461",
            "wakeUpServer()": "29823"
        }
    }
}